{
  "contractName": "Migrations",
  "abi": [
    {
      "inputs": [],
      "stateMutability": "nonpayable",
      "type": "constructor"
    },
    {
      "inputs": [],
      "name": "lastCompletedMigration",
      "outputs": [
        {
          "internalType": "uint256",
          "name": "",
          "type": "uint256"
        }
      ],
      "stateMutability": "view",
      "type": "function"
    },
    {
      "inputs": [],
      "name": "owner",
      "outputs": [
        {
          "internalType": "address",
          "name": "",
          "type": "address"
        }
      ],
      "stateMutability": "view",
      "type": "function"
    },
    {
      "inputs": [
        {
          "internalType": "uint256",
          "name": "_completed",
          "type": "uint256"
        }
      ],
      "name": "setCompleted",
      "outputs": [],
      "stateMutability": "nonpayable",
      "type": "function"
    }
  ],
  "bytecode": "0x608060405234801561001057600080fd5b50600080546001600160a01b03191633179055610170806100326000396000f3fe608060405234801561001057600080fd5b50600436106100415760003560e01c80638da5cb5b14610046578063fbdbad3c14610076578063fdacd5761461008d575b600080fd5b600054610059906001600160a01b031681565b6040516001600160a01b0390911681526020015b60405180910390f35b61007f60015481565b60405190815260200161006d565b6100a061009b366004610121565b6100a2565b005b6000546001600160a01b0316331461011c5760405162461bcd60e51b815260206004820152603360248201527f546869732066756e6374696f6e206973207265737472696374656420746f207460448201527234329031b7b73a3930b1ba13b99037bbb732b960691b606482015260840160405180910390fd5b600155565b60006020828403121561013357600080fd5b503591905056fea2646970667358221220a9242ce402ef54ee31e356010ce5570545527812f79316d90236e21b50b3be7f64736f6c63430008140033",
  "immutableReferences": {},
  "source": "// SPDX-License-Identifier: MIT\r\npragma solidity ^0.8.20;\r\n\r\ncontract Migrations {\r\n    address public owner;\r\n    uint256 public lastCompletedMigration;\r\n\r\n    constructor() {\r\n        owner = msg.sender;\r\n    }\r\n\r\n    modifier onlyOwner() {\r\n        require(msg.sender == owner, \"This function is restricted to the contract's owner\");\r\n        _;\r\n    }\r\n\r\n    function setCompleted(uint256 _completed) public onlyOwner {\r\n        lastCompletedMigration = _completed;\r\n    }\r\n}",
  "sourcePath": "C:\\Users\\Harshvardhan Sharma\\OneDrive\\Desktop\\Projects\\Supply-Chain-Management-using-Blockchain-Technology\\contracts\\Migrations.sol",
  "compiler": {
    "name": "solc",
    "version": "0.8.20+commit.a1b79de6.Emscripten.clang"
  },
  "schemaVersion": "3.4.16",
  "updatedAt": "2025-02-14T18:10:00.673Z",
  "networkType": "ethereum",
  "devdoc": {
    "kind": "dev",
    "methods": {},
    "version": 1
  },
  "userdoc": {
    "kind": "user",
    "methods": {},
    "version": 1
  }
}