{
  "contractName": "SupplyChain",
  "abi": [
    {
      "inputs": [],
      "stateMutability": "nonpayable",
      "type": "constructor"
    },
    {
      "inputs": [
        {
          "internalType": "address",
          "name": "",
          "type": "address"
        }
      ],
      "name": "distributors",
      "outputs": [
        {
          "internalType": "address",
          "name": "addr",
          "type": "address"
        },
        {
          "internalType": "string",
          "name": "name",
          "type": "string"
        },
        {
          "internalType": "string",
          "name": "location",
          "type": "string"
        }
      ],
      "stateMutability": "view",
      "type": "function",
      "constant": true
    },
    {
      "inputs": [
        {
          "internalType": "address",
          "name": "",
          "type": "address"
        }
      ],
      "name": "manufacturers",
      "outputs": [
        {
          "internalType": "address",
          "name": "addr",
          "type": "address"
        },
        {
          "internalType": "string",
          "name": "name",
          "type": "string"
        },
        {
          "internalType": "string",
          "name": "location",
          "type": "string"
        }
      ],
      "stateMutability": "view",
      "type": "function",
      "constant": true
    },
    {
      "inputs": [],
      "name": "medicineCounter",
      "outputs": [
        {
          "internalType": "uint256",
          "name": "",
          "type": "uint256"
        }
      ],
      "stateMutability": "view",
      "type": "function",
      "constant": true
    },
    {
      "inputs": [
        {
          "internalType": "uint256",
          "name": "",
          "type": "uint256"
        }
      ],
      "name": "medicines",
      "outputs": [
        {
          "internalType": "uint256",
          "name": "id",
          "type": "uint256"
        },
        {
          "internalType": "string",
          "name": "name",
          "type": "string"
        },
        {
          "internalType": "string",
          "name": "description",
          "type": "string"
        },
        {
          "internalType": "address",
          "name": "supplier",
          "type": "address"
        },
        {
          "internalType": "address",
          "name": "manufacturer",
          "type": "address"
        },
        {
          "internalType": "address",
          "name": "distributor",
          "type": "address"
        },
        {
          "internalType": "address",
          "name": "retailer",
          "type": "address"
        },
        {
          "internalType": "enum SupplyChain.Stage",
          "name": "stage",
          "type": "uint8"
        }
      ],
      "stateMutability": "view",
      "type": "function",
      "constant": true
    },
    {
      "inputs": [],
      "name": "owner",
      "outputs": [
        {
          "internalType": "address",
          "name": "",
          "type": "address"
        }
      ],
      "stateMutability": "view",
      "type": "function",
      "constant": true
    },
    {
      "inputs": [
        {
          "internalType": "address",
          "name": "",
          "type": "address"
        }
      ],
      "name": "retailers",
      "outputs": [
        {
          "internalType": "address",
          "name": "addr",
          "type": "address"
        },
        {
          "internalType": "string",
          "name": "name",
          "type": "string"
        },
        {
          "internalType": "string",
          "name": "location",
          "type": "string"
        }
      ],
      "stateMutability": "view",
      "type": "function",
      "constant": true
    },
    {
      "inputs": [
        {
          "internalType": "address",
          "name": "",
          "type": "address"
        }
      ],
      "name": "suppliers",
      "outputs": [
        {
          "internalType": "address",
          "name": "addr",
          "type": "address"
        },
        {
          "internalType": "string",
          "name": "name",
          "type": "string"
        },
        {
          "internalType": "string",
          "name": "location",
          "type": "string"
        }
      ],
      "stateMutability": "view",
      "type": "function",
      "constant": true
    },
    {
      "inputs": [
        {
          "internalType": "address",
          "name": "newOwner",
          "type": "address"
        }
      ],
      "name": "transferOwnership",
      "outputs": [],
      "stateMutability": "nonpayable",
      "type": "function"
    },
    {
      "inputs": [
        {
          "internalType": "string",
          "name": "_name",
          "type": "string"
        },
        {
          "internalType": "string",
          "name": "_description",
          "type": "string"
        }
      ],
      "name": "addMedicine",
      "outputs": [],
      "stateMutability": "nonpayable",
      "type": "function"
    },
    {
      "inputs": [
        {
          "internalType": "address",
          "name": "_addr",
          "type": "address"
        },
        {
          "internalType": "string",
          "name": "_name",
          "type": "string"
        },
        {
          "internalType": "string",
          "name": "_location",
          "type": "string"
        }
      ],
      "name": "addSupplier",
      "outputs": [],
      "stateMutability": "nonpayable",
      "type": "function"
    },
    {
      "inputs": [
        {
          "internalType": "address",
          "name": "_addr",
          "type": "address"
        },
        {
          "internalType": "string",
          "name": "_name",
          "type": "string"
        },
        {
          "internalType": "string",
          "name": "_location",
          "type": "string"
        }
      ],
      "name": "addManufacturer",
      "outputs": [],
      "stateMutability": "nonpayable",
      "type": "function"
    },
    {
      "inputs": [
        {
          "internalType": "address",
          "name": "_addr",
          "type": "address"
        },
        {
          "internalType": "string",
          "name": "_name",
          "type": "string"
        },
        {
          "internalType": "string",
          "name": "_location",
          "type": "string"
        }
      ],
      "name": "addDistributor",
      "outputs": [],
      "stateMutability": "nonpayable",
      "type": "function"
    },
    {
      "inputs": [
        {
          "internalType": "address",
          "name": "_addr",
          "type": "address"
        },
        {
          "internalType": "string",
          "name": "_name",
          "type": "string"
        },
        {
          "internalType": "string",
          "name": "_location",
          "type": "string"
        }
      ],
      "name": "addRetailer",
      "outputs": [],
      "stateMutability": "nonpayable",
      "type": "function"
    },
    {
      "inputs": [
        {
          "internalType": "uint256",
          "name": "_medicineID",
          "type": "uint256"
        }
      ],
      "name": "supplyRawMaterials",
      "outputs": [],
      "stateMutability": "nonpayable",
      "type": "function"
    },
    {
      "inputs": [
        {
          "internalType": "uint256",
          "name": "_medicineID",
          "type": "uint256"
        }
      ],
      "name": "manufactureMedicine",
      "outputs": [],
      "stateMutability": "nonpayable",
      "type": "function"
    },
    {
      "inputs": [
        {
          "internalType": "uint256",
          "name": "_medicineID",
          "type": "uint256"
        }
      ],
      "name": "distributeMedicine",
      "outputs": [],
      "stateMutability": "nonpayable",
      "type": "function"
    },
    {
      "inputs": [
        {
          "internalType": "uint256",
          "name": "_medicineID",
          "type": "uint256"
        }
      ],
      "name": "retailMedicine",
      "outputs": [],
      "stateMutability": "nonpayable",
      "type": "function"
    },
    {
      "inputs": [
        {
          "internalType": "uint256",
          "name": "_medicineID",
          "type": "uint256"
        }
      ],
      "name": "sellMedicine",
      "outputs": [],
      "stateMutability": "nonpayable",
      "type": "function"
    },
    {
      "inputs": [
        {
          "internalType": "uint256",
          "name": "_medicineID",
          "type": "uint256"
        }
      ],
      "name": "getMedicineStage",
      "outputs": [
        {
          "internalType": "string",
          "name": "",
          "type": "string"
        }
      ],
      "stateMutability": "view",
      "type": "function",
      "constant": true
    }
  ],
  "bytecode": "0x608060405234801561001057600080fd5b50600080546001600160a01b03191633179055611673806100326000396000f3fe608060405234801561001057600080fd5b50600436106101215760003560e01c80639a268f35116100ad578063b8ee738c11610071578063b8ee738c14610273578063c85e766d14610286578063cc642784146102ad578063eddea144146102c0578063f2fde38b146102d357600080fd5b80639a268f3514610210578063a288bb9e14610223578063ac859a4b14610236578063b02385ea1461024d578063b5fabfda1461026057600080fd5b80636b5eb09c116100f45780636b5eb09c14610199578063857ddb04146101ac5780638da5cb5b146101bf5780638f001323146101ea5780638f4183cc146101fd57600080fd5b806316dc15fe146101265780632a4af440146101515780635cf723a3146101665780636a992c9f14610186575b600080fd5b610139610134366004611195565b6102e6565b604051610148939291906111fd565b60405180910390f35b61016461015f3660046112e0565b610423565b005b610179610174366004611354565b6104d0565b604051610148919061136d565b6101646101943660046112e0565b610765565b6101396101a7366004611195565b6107ec565b6101646101ba3660046112e0565b610818565b6000546101d2906001600160a01b031681565b6040516001600160a01b039091168152602001610148565b6101646101f8366004611354565b61089f565b61016461020b366004611380565b610981565b61013961021e366004611195565b610ae0565b610164610231366004611354565b610b0c565b61023f60065481565b604051908152602001610148565b61016461025b366004611354565b610bf8565b61016461026e3660046112e0565b610ce6565b610164610281366004611354565b610d6d565b610299610294366004611354565b610e5b565b6040516101489897969594939291906113fa565b6101396102bb366004611195565b610fc2565b6101646102ce366004611354565b610fee565b6101646102e1366004611195565b6110e5565b600260205260009081526040902080546001820180546001600160a01b03909216929161031290611483565b80601f016020809104026020016040519081016040528092919081815260200182805461033e90611483565b801561038b5780601f106103605761010080835404028352916020019161038b565b820191906000526020600020905b81548152906001019060200180831161036e57829003601f168201915b5050505050908060020180546103a090611483565b80601f01602080910402602001604051908101604052809291908181526020018280546103cc90611483565b80156104195780601f106103ee57610100808354040283529160200191610419565b820191906000526020600020905b8154815290600101906020018083116103fc57829003601f168201915b5050505050905083565b6000546001600160a01b031633146104565760405162461bcd60e51b815260040161044d906114bd565b60405180910390fd5b604080516060810182526001600160a01b03858116808352602080840187815284860187905260009283526004909152939020825181546001600160a01b0319169216919091178155915190919060018201906104b3908261152f565b50604082015160028201906104c8908261152f565b505050505050565b60606000821180156104e457506006548211155b6105265760405162461bcd60e51b8152602060048201526013602482015272125b9d985b1a59081b59591a58da5b99481251606a1b604482015260640161044d565b60008083815260016020526040902060060154600160a01b900460ff166005811115610554576105546113e4565b0361057c57505060408051808201909152600781526613dc99195c995960ca1b602082015290565b6001600083815260016020526040902060060154600160a01b900460ff1660058111156105ab576105ab6113e4565b036105e157505060408051808201909152601581527414985dc813585d195c9a585b0814dd5c1c1b1a5959605a1b602082015290565b6002600083815260016020526040902060060154600160a01b900460ff166005811115610610576106106113e4565b0361063d57505060408051808201909152600c81526b13585b9d599858dd1d5c995960a21b602082015290565b6003600083815260016020526040902060060154600160a01b900460ff16600581111561066c5761066c6113e4565b0361069857505060408051808201909152600b81526a111a5cdd1c9a589d5d195960aa1b602082015290565b6004600083815260016020526040902060060154600160a01b900460ff1660058111156106c7576106c76113e4565b036106ee57505060408051808201909152600681526514995d185a5b60d21b602082015290565b6005600083815260016020526040902060060154600160a01b900460ff16600581111561071d5761071d6113e4565b0361074257505060408051808201909152600481526314dbdb1960e21b602082015290565b50506040805180820190915260078152662ab735b737bbb760c91b602082015290565b6000546001600160a01b0316331461078f5760405162461bcd60e51b815260040161044d906114bd565b604080516060810182526001600160a01b03858116808352602080840187815284860187905260009283526003909152939020825181546001600160a01b0319169216919091178155915190919060018201906104b3908261152f565b600360205260009081526040902080546001820180546001600160a01b03909216929161031290611483565b6000546001600160a01b031633146108425760405162461bcd60e51b815260040161044d906114bd565b604080516060810182526001600160a01b03858116808352602080840187815284860187905260009283526005909152939020825181546001600160a01b0319169216919091178155915190919060018201906104b3908261152f565b6000818152600160205260409020600601546001600160a01b031633146109085760405162461bcd60e51b815260206004820152601960248201527f4e6f74207468652061737369676e65642072657461696c657200000000000000604482015260640161044d565b6004600082815260016020526040902060060154600160a01b900460ff166005811115610937576109376113e4565b146109545760405162461bcd60e51b815260040161044d906115ef565b600081815260016020526040902060060180546005919060ff60a01b1916600160a01b835b021790555050565b6000546001600160a01b031633146109ab5760405162461bcd60e51b815260040161044d906114bd565b600680549060006109bb83611616565b909155505060408051610100810182526006548152602081018490529081018290526000606082018190526080820181905260a0820181905260c0820181905260e08201526006546000908152600160208181526040909220835181559183015190820190610a2a908261152f565b5060408201516002820190610a3f908261152f565b5060608201516003820180546001600160a01b03199081166001600160a01b03938416179091556080840151600484018054831691841691909117905560a08401516005808501805484169285169290921790915560c085015160068501805493841691909416908117845560e086015193926001600160a81b0319161790600160a01b908490811115610ad557610ad56113e4565b021790555050505050565b600560205260009081526040902080546001820180546001600160a01b03909216929161031290611483565b336000908152600260205260409020546001600160a01b0316610b715760405162461bcd60e51b815260206004820152601960248201527f4e6f742061207265676973746572656420737570706c69657200000000000000604482015260640161044d565b60008082815260016020526040902060060154600160a01b900460ff166005811115610b9f57610b9f6113e4565b14610bbc5760405162461bcd60e51b815260040161044d906115ef565b60008181526001602081905260409091206003810180546001600160a01b03191633179055600601805460ff60a01b1916600160a01b83610979565b336000908152600360205260409020546001600160a01b0316610c5d5760405162461bcd60e51b815260206004820152601d60248201527f4e6f7420612072656769737465726564206d616e756661637475726572000000604482015260640161044d565b6001600082815260016020526040902060060154600160a01b900460ff166005811115610c8c57610c8c6113e4565b14610ca95760405162461bcd60e51b815260040161044d906115ef565b60008181526001602052604090206004810180546001600160a01b0319163317905560060180546002919060ff60a01b1916600160a01b83610979565b6000546001600160a01b03163314610d105760405162461bcd60e51b815260040161044d906114bd565b604080516060810182526001600160a01b03858116808352602080840187815284860187905260009283526002909152939020825181546001600160a01b0319169216919091178155915190919060018201906104b3908261152f565b336000908152600460205260409020546001600160a01b0316610dd25760405162461bcd60e51b815260206004820152601c60248201527f4e6f7420612072656769737465726564206469737472696275746f7200000000604482015260640161044d565b6002600082815260016020526040902060060154600160a01b900460ff166005811115610e0157610e016113e4565b14610e1e5760405162461bcd60e51b815260040161044d906115ef565b60008181526001602052604090206005810180546001600160a01b0319163317905560060180546003919060ff60a01b1916600160a01b83610979565b600160208190526000918252604090912080549181018054610e7c90611483565b80601f0160208091040260200160405190810160405280929190818152602001828054610ea890611483565b8015610ef55780601f10610eca57610100808354040283529160200191610ef5565b820191906000526020600020905b815481529060010190602001808311610ed857829003601f168201915b505050505090806002018054610f0a90611483565b80601f0160208091040260200160405190810160405280929190818152602001828054610f3690611483565b8015610f835780601f10610f5857610100808354040283529160200191610f83565b820191906000526020600020905b815481529060010190602001808311610f6657829003601f168201915b5050505060038301546004840154600585015460069095015493946001600160a01b03928316949183169350821691811690600160a01b900460ff1688565b600460205260009081526040902080546001820180546001600160a01b03909216929161031290611483565b336000908152600560205260409020546001600160a01b03166110535760405162461bcd60e51b815260206004820152601960248201527f4e6f74206120726567697374657265642072657461696c657200000000000000604482015260640161044d565b6003600082815260016020526040902060060154600160a01b900460ff166005811115611082576110826113e4565b1461109f5760405162461bcd60e51b815260040161044d906115ef565b60008181526001602052604090206006018054336001600160a01b0319821681178355600492916001600160a81b03191660ff60a01b1990911617600160a01b83610979565b6000546001600160a01b0316331461110f5760405162461bcd60e51b815260040161044d906114bd565b6001600160a01b0381166111575760405162461bcd60e51b815260206004820152600f60248201526e496e76616c6964206164647265737360881b604482015260640161044d565b600080546001600160a01b0319166001600160a01b0392909216919091179055565b80356001600160a01b038116811461119057600080fd5b919050565b6000602082840312156111a757600080fd5b6111b082611179565b9392505050565b6000815180845260005b818110156111dd576020818501810151868301820152016111c1565b506000602082860101526020601f19601f83011685010191505092915050565b6001600160a01b0384168152606060208201819052600090611221908301856111b7565b828103604084015261123381856111b7565b9695505050505050565b634e487b7160e01b600052604160045260246000fd5b600082601f83011261126457600080fd5b813567ffffffffffffffff8082111561127f5761127f61123d565b604051601f8301601f19908116603f011681019082821181831017156112a7576112a761123d565b816040528381528660208588010111156112c057600080fd5b836020870160208301376000602085830101528094505050505092915050565b6000806000606084860312156112f557600080fd5b6112fe84611179565b9250602084013567ffffffffffffffff8082111561131b57600080fd5b61132787838801611253565b9350604086013591508082111561133d57600080fd5b5061134a86828701611253565b9150509250925092565b60006020828403121561136657600080fd5b5035919050565b6020815260006111b060208301846111b7565b6000806040838503121561139357600080fd5b823567ffffffffffffffff808211156113ab57600080fd5b6113b786838701611253565b935060208501359150808211156113cd57600080fd5b506113da85828601611253565b9150509250929050565b634e487b7160e01b600052602160045260246000fd5b60006101008a83528060208401526114148184018b6111b7565b90508281036040840152611428818a6111b7565b6001600160a01b038981166060860152888116608086015287811660a0860152861660c08501529150506006831061147057634e487b7160e01b600052602160045260246000fd5b8260e08301529998505050505050505050565b600181811c9082168061149757607f821691505b6020821081036114b757634e487b7160e01b600052602260045260246000fd5b50919050565b6020808252600d908201526c2737ba103a34329037bbb732b960991b604082015260600190565b601f82111561152a57600081815260208120601f850160051c8101602086101561150b5750805b601f850160051c820191505b818110156104c857828155600101611517565b505050565b815167ffffffffffffffff8111156115495761154961123d565b61155d816115578454611483565b846114e4565b602080601f831160018114611592576000841561157a5750858301515b600019600386901b1c1916600185901b1785556104c8565b600085815260208120601f198616915b828110156115c1578886015182559484019460019091019084016115a2565b50858210156115df5787850151600019600388901b60f8161c191681555b5050505050600190811b01905550565b6020808252600d908201526c496e76616c696420737461676560981b604082015260600190565b60006001820161163657634e487b7160e01b600052601160045260246000fd5b506001019056fea2646970667358221220b254c254f42ad6d389f8e3700e5d8a19791219dee7d79621b573c65aaca6fd2264736f6c63430008140033",
  "immutableReferences": {},
  "source": "// SPDX-License-Identifier: MIT\r\npragma solidity ^0.8.20;\r\n\r\ncontract SupplyChain {\r\n    address public owner;  // Contract owner\r\n\r\n    constructor() {\r\n        owner = msg.sender;  // Set deployer as owner\r\n    }\r\n\r\n    // Modifier to allow only the owner to execute certain functions\r\n    modifier onlyOwner() {\r\n        require(msg.sender == owner, \"Not the owner\");\r\n        _;\r\n    }\r\n\r\n    // Transfer ownership to another address (if needed)\r\n    function transferOwnership(address newOwner) public onlyOwner {\r\n        require(newOwner != address(0), \"Invalid address\");\r\n        owner = newOwner;\r\n    }\r\n\r\n    // Enum to represent different supply chain stages\r\n    enum Stage {\r\n        Ordered,\r\n        RawMaterialSupplied,\r\n        Manufactured,\r\n        Distributed,\r\n        Retail,\r\n        Sold\r\n    }\r\n\r\n    // Structure to store details of a medicine\r\n    struct Medicine {\r\n        uint256 id;\r\n        string name;\r\n        string description;\r\n        address supplier;\r\n        address manufacturer;\r\n        address distributor;\r\n        address retailer;\r\n        Stage stage;\r\n    }\r\n\r\n    // Structure for supply chain participants\r\n    struct Participant {\r\n        address addr;\r\n        string name;\r\n        string location;\r\n    }\r\n\r\n    // Mappings to store data\r\n    mapping(uint256 => Medicine) public medicines;\r\n    mapping(address => Participant) public suppliers;\r\n    mapping(address => Participant) public manufacturers;\r\n    mapping(address => Participant) public distributors;\r\n    mapping(address => Participant) public retailers;\r\n\r\n    // Counters to assign unique IDs\r\n    uint256 public medicineCounter;\r\n\r\n    // Add new medicine (only owner)\r\n    function addMedicine(string memory _name, string memory _description) public onlyOwner {\r\n        medicineCounter++;\r\n        medicines[medicineCounter] = Medicine(\r\n            medicineCounter,\r\n            _name,\r\n            _description,\r\n            address(0),  // No supplier assigned yet\r\n            address(0),  // No manufacturer assigned yet\r\n            address(0),  // No distributor assigned yet\r\n            address(0),  // No retailer assigned yet\r\n            Stage.Ordered\r\n        );\r\n    }\r\n\r\n    // Register supply chain participants (only owner)\r\n    function addSupplier(address _addr, string memory _name, string memory _location) public onlyOwner {\r\n        suppliers[_addr] = Participant(_addr, _name, _location);\r\n    }\r\n\r\n    function addManufacturer(address _addr, string memory _name, string memory _location) public onlyOwner {\r\n        manufacturers[_addr] = Participant(_addr, _name, _location);\r\n    }\r\n\r\n    function addDistributor(address _addr, string memory _name, string memory _location) public onlyOwner {\r\n        distributors[_addr] = Participant(_addr, _name, _location);\r\n    }\r\n\r\n    function addRetailer(address _addr, string memory _name, string memory _location) public onlyOwner {\r\n        retailers[_addr] = Participant(_addr, _name, _location);\r\n    }\r\n\r\n    // Supply raw materials (Only Supplier)\r\n    function supplyRawMaterials(uint256 _medicineID) public {\r\n        require(suppliers[msg.sender].addr != address(0), \"Not a registered supplier\");\r\n        require(medicines[_medicineID].stage == Stage.Ordered, \"Invalid stage\");\r\n        medicines[_medicineID].supplier = msg.sender;\r\n        medicines[_medicineID].stage = Stage.RawMaterialSupplied;\r\n    }\r\n\r\n    // Manufacture medicine (Only Manufacturer)\r\n    function manufactureMedicine(uint256 _medicineID) public {\r\n        require(manufacturers[msg.sender].addr != address(0), \"Not a registered manufacturer\");\r\n        require(medicines[_medicineID].stage == Stage.RawMaterialSupplied, \"Invalid stage\");\r\n        medicines[_medicineID].manufacturer = msg.sender;\r\n        medicines[_medicineID].stage = Stage.Manufactured;\r\n    }\r\n\r\n    // Distribute medicine (Only Distributor)\r\n    function distributeMedicine(uint256 _medicineID) public {\r\n        require(distributors[msg.sender].addr != address(0), \"Not a registered distributor\");\r\n        require(medicines[_medicineID].stage == Stage.Manufactured, \"Invalid stage\");\r\n        medicines[_medicineID].distributor = msg.sender;\r\n        medicines[_medicineID].stage = Stage.Distributed;\r\n    }\r\n\r\n    // Retail medicine (Only Retailer)\r\n    function retailMedicine(uint256 _medicineID) public {\r\n        require(retailers[msg.sender].addr != address(0), \"Not a registered retailer\");\r\n        require(medicines[_medicineID].stage == Stage.Distributed, \"Invalid stage\");\r\n        medicines[_medicineID].retailer = msg.sender;\r\n        medicines[_medicineID].stage = Stage.Retail;\r\n    }\r\n\r\n    // Mark medicine as sold (Only assigned retailer)\r\n    function sellMedicine(uint256 _medicineID) public {\r\n        require(medicines[_medicineID].retailer == msg.sender, \"Not the assigned retailer\");\r\n        require(medicines[_medicineID].stage == Stage.Retail, \"Invalid stage\");\r\n        medicines[_medicineID].stage = Stage.Sold;\r\n    }\r\n\r\n    // Get current stage of medicine\r\n    function getMedicineStage(uint256 _medicineID) public view returns (string memory) {\r\n        require(_medicineID > 0 && _medicineID <= medicineCounter, \"Invalid medicine ID\");\r\n\r\n        if (medicines[_medicineID].stage == Stage.Ordered) return \"Ordered\";\r\n        if (medicines[_medicineID].stage == Stage.RawMaterialSupplied) return \"Raw Material Supplied\";\r\n        if (medicines[_medicineID].stage == Stage.Manufactured) return \"Manufactured\";\r\n        if (medicines[_medicineID].stage == Stage.Distributed) return \"Distributed\";\r\n        if (medicines[_medicineID].stage == Stage.Retail) return \"Retail\";\r\n        if (medicines[_medicineID].stage == Stage.Sold) return \"Sold\";\r\n\r\n        return \"Unknown\";\r\n    }\r\n}",
  "sourcePath": "C:\\Users\\Harshvardhan Sharma\\OneDrive\\Desktop\\Projects\\Supply-Chain-Management-using-Blockchain-Technology\\contracts\\Supplychain.sol",
  "compiler": {
    "name": "solc",
    "version": "0.8.20+commit.a1b79de6.Emscripten.clang"
  },
  "schemaVersion": "3.4.16",
  "updatedAt": "2025-02-14T18:10:00.667Z",
  "networkType": "ethereum",
  "devdoc": {
    "kind": "dev",
    "methods": {},
    "version": 1
  },
  "userdoc": {
    "kind": "user",
    "methods": {},
    "version": 1
  }
}