{
  "contractName": "SupplyChain",
  "abi": [
    {
      "inputs": [],
      "stateMutability": "nonpayable",
      "type": "constructor"
    },
    {
      "anonymous": false,
      "inputs": [
        {
          "indexed": true,
          "internalType": "uint256",
          "name": "medicineId",
          "type": "uint256"
        },
        {
          "indexed": false,
          "internalType": "string",
          "name": "name",
          "type": "string"
        }
      ],
      "name": "MedicineAdded",
      "type": "event"
    },
    {
      "anonymous": false,
      "inputs": [
        {
          "indexed": true,
          "internalType": "uint256",
          "name": "medicineId",
          "type": "uint256"
        },
        {
          "indexed": false,
          "internalType": "enum SupplyChain.Stage",
          "name": "newStage",
          "type": "uint8"
        }
      ],
      "name": "MedicineStageUpdated",
      "type": "event"
    },
    {
      "anonymous": false,
      "inputs": [
        {
          "indexed": true,
          "internalType": "address",
          "name": "participant",
          "type": "address"
        },
        {
          "indexed": false,
          "internalType": "string",
          "name": "role",
          "type": "string"
        }
      ],
      "name": "ParticipantAdded",
      "type": "event"
    },
    {
      "anonymous": false,
      "inputs": [
        {
          "indexed": true,
          "internalType": "uint256",
          "name": "medicineId",
          "type": "uint256"
        },
        {
          "indexed": false,
          "internalType": "string",
          "name": "trackingId",
          "type": "string"
        }
      ],
      "name": "ShipmentCreated",
      "type": "event"
    },
    {
      "anonymous": false,
      "inputs": [
        {
          "indexed": false,
          "internalType": "string",
          "name": "trackingId",
          "type": "string"
        },
        {
          "indexed": false,
          "internalType": "enum SupplyChain.ShipmentStatus",
          "name": "status",
          "type": "uint8"
        }
      ],
      "name": "ShipmentUpdated",
      "type": "event"
    },
    {
      "anonymous": false,
      "inputs": [
        {
          "indexed": true,
          "internalType": "uint256",
          "name": "medicineId",
          "type": "uint256"
        },
        {
          "indexed": false,
          "internalType": "string",
          "name": "action",
          "type": "string"
        },
        {
          "indexed": false,
          "internalType": "address",
          "name": "participant",
          "type": "address"
        }
      ],
      "name": "TransactionRecorded",
      "type": "event"
    },
    {
      "inputs": [
        {
          "internalType": "address",
          "name": "",
          "type": "address"
        }
      ],
      "name": "distributors",
      "outputs": [
        {
          "internalType": "address",
          "name": "addr",
          "type": "address"
        },
        {
          "internalType": "string",
          "name": "name",
          "type": "string"
        },
        {
          "internalType": "string",
          "name": "location",
          "type": "string"
        }
      ],
      "stateMutability": "view",
      "type": "function",
      "constant": true
    },
    {
      "inputs": [
        {
          "internalType": "address",
          "name": "",
          "type": "address"
        }
      ],
      "name": "manufacturers",
      "outputs": [
        {
          "internalType": "address",
          "name": "addr",
          "type": "address"
        },
        {
          "internalType": "string",
          "name": "name",
          "type": "string"
        },
        {
          "internalType": "string",
          "name": "location",
          "type": "string"
        }
      ],
      "stateMutability": "view",
      "type": "function",
      "constant": true
    },
    {
      "inputs": [],
      "name": "medicineCounter",
      "outputs": [
        {
          "internalType": "uint256",
          "name": "",
          "type": "uint256"
        }
      ],
      "stateMutability": "view",
      "type": "function",
      "constant": true
    },
    {
      "inputs": [
        {
          "internalType": "uint256",
          "name": "",
          "type": "uint256"
        }
      ],
      "name": "medicines",
      "outputs": [
        {
          "internalType": "uint256",
          "name": "id",
          "type": "uint256"
        },
        {
          "internalType": "string",
          "name": "name",
          "type": "string"
        },
        {
          "internalType": "string",
          "name": "description",
          "type": "string"
        },
        {
          "internalType": "address",
          "name": "supplier",
          "type": "address"
        },
        {
          "internalType": "address",
          "name": "manufacturer",
          "type": "address"
        },
        {
          "internalType": "address",
          "name": "distributor",
          "type": "address"
        },
        {
          "internalType": "address",
          "name": "retailer",
          "type": "address"
        },
        {
          "internalType": "enum SupplyChain.Stage",
          "name": "stage",
          "type": "uint8"
        }
      ],
      "stateMutability": "view",
      "type": "function",
      "constant": true
    },
    {
      "inputs": [],
      "name": "owner",
      "outputs": [
        {
          "internalType": "address",
          "name": "",
          "type": "address"
        }
      ],
      "stateMutability": "view",
      "type": "function",
      "constant": true
    },
    {
      "inputs": [
        {
          "internalType": "address",
          "name": "",
          "type": "address"
        }
      ],
      "name": "retailers",
      "outputs": [
        {
          "internalType": "address",
          "name": "addr",
          "type": "address"
        },
        {
          "internalType": "string",
          "name": "name",
          "type": "string"
        },
        {
          "internalType": "string",
          "name": "location",
          "type": "string"
        }
      ],
      "stateMutability": "view",
      "type": "function",
      "constant": true
    },
    {
      "inputs": [
        {
          "internalType": "string",
          "name": "",
          "type": "string"
        }
      ],
      "name": "shipments",
      "outputs": [
        {
          "internalType": "uint256",
          "name": "medicineId",
          "type": "uint256"
        },
        {
          "internalType": "address",
          "name": "sender",
          "type": "address"
        },
        {
          "internalType": "address",
          "name": "receiver",
          "type": "address"
        },
        {
          "internalType": "string",
          "name": "trackingId",
          "type": "string"
        },
        {
          "internalType": "enum SupplyChain.ShipmentStatus",
          "name": "status",
          "type": "uint8"
        }
      ],
      "stateMutability": "view",
      "type": "function",
      "constant": true
    },
    {
      "inputs": [
        {
          "internalType": "address",
          "name": "",
          "type": "address"
        }
      ],
      "name": "suppliers",
      "outputs": [
        {
          "internalType": "address",
          "name": "addr",
          "type": "address"
        },
        {
          "internalType": "string",
          "name": "name",
          "type": "string"
        },
        {
          "internalType": "string",
          "name": "location",
          "type": "string"
        }
      ],
      "stateMutability": "view",
      "type": "function",
      "constant": true
    },
    {
      "inputs": [
        {
          "internalType": "uint256",
          "name": "",
          "type": "uint256"
        }
      ],
      "name": "transactions",
      "outputs": [
        {
          "internalType": "uint256",
          "name": "medicineId",
          "type": "uint256"
        },
        {
          "internalType": "address",
          "name": "participant",
          "type": "address"
        },
        {
          "internalType": "string",
          "name": "action",
          "type": "string"
        },
        {
          "internalType": "uint256",
          "name": "timestamp",
          "type": "uint256"
        }
      ],
      "stateMutability": "view",
      "type": "function",
      "constant": true
    },
    {
      "inputs": [
        {
          "internalType": "address",
          "name": "newOwner",
          "type": "address"
        }
      ],
      "name": "transferOwnership",
      "outputs": [],
      "stateMutability": "nonpayable",
      "type": "function"
    },
    {
      "inputs": [
        {
          "internalType": "string",
          "name": "_name",
          "type": "string"
        },
        {
          "internalType": "string",
          "name": "_description",
          "type": "string"
        }
      ],
      "name": "addMedicine",
      "outputs": [],
      "stateMutability": "nonpayable",
      "type": "function"
    },
    {
      "inputs": [
        {
          "internalType": "address",
          "name": "_addr",
          "type": "address"
        },
        {
          "internalType": "string",
          "name": "_name",
          "type": "string"
        },
        {
          "internalType": "string",
          "name": "_location",
          "type": "string"
        }
      ],
      "name": "addSupplier",
      "outputs": [],
      "stateMutability": "nonpayable",
      "type": "function"
    },
    {
      "inputs": [
        {
          "internalType": "address",
          "name": "_addr",
          "type": "address"
        },
        {
          "internalType": "string",
          "name": "_name",
          "type": "string"
        },
        {
          "internalType": "string",
          "name": "_location",
          "type": "string"
        }
      ],
      "name": "addManufacturer",
      "outputs": [],
      "stateMutability": "nonpayable",
      "type": "function"
    },
    {
      "inputs": [
        {
          "internalType": "address",
          "name": "_addr",
          "type": "address"
        },
        {
          "internalType": "string",
          "name": "_name",
          "type": "string"
        },
        {
          "internalType": "string",
          "name": "_location",
          "type": "string"
        }
      ],
      "name": "addDistributor",
      "outputs": [],
      "stateMutability": "nonpayable",
      "type": "function"
    },
    {
      "inputs": [
        {
          "internalType": "address",
          "name": "_addr",
          "type": "address"
        },
        {
          "internalType": "string",
          "name": "_name",
          "type": "string"
        },
        {
          "internalType": "string",
          "name": "_location",
          "type": "string"
        }
      ],
      "name": "addRetailer",
      "outputs": [],
      "stateMutability": "nonpayable",
      "type": "function"
    },
    {
      "inputs": [
        {
          "internalType": "uint256",
          "name": "_medicineID",
          "type": "uint256"
        }
      ],
      "name": "supplyRawMaterials",
      "outputs": [],
      "stateMutability": "nonpayable",
      "type": "function"
    },
    {
      "inputs": [
        {
          "internalType": "uint256",
          "name": "_medicineID",
          "type": "uint256"
        }
      ],
      "name": "manufactureMedicine",
      "outputs": [],
      "stateMutability": "nonpayable",
      "type": "function"
    },
    {
      "inputs": [
        {
          "internalType": "uint256",
          "name": "_medicineID",
          "type": "uint256"
        }
      ],
      "name": "distributeMedicine",
      "outputs": [],
      "stateMutability": "nonpayable",
      "type": "function"
    },
    {
      "inputs": [
        {
          "internalType": "uint256",
          "name": "_medicineID",
          "type": "uint256"
        }
      ],
      "name": "retailMedicine",
      "outputs": [],
      "stateMutability": "nonpayable",
      "type": "function"
    },
    {
      "inputs": [
        {
          "internalType": "uint256",
          "name": "_medicineID",
          "type": "uint256"
        }
      ],
      "name": "sellMedicine",
      "outputs": [],
      "stateMutability": "nonpayable",
      "type": "function"
    },
    {
      "inputs": [
        {
          "internalType": "uint256",
          "name": "_medicineID",
          "type": "uint256"
        }
      ],
      "name": "getMedicineStage",
      "outputs": [
        {
          "internalType": "string",
          "name": "",
          "type": "string"
        }
      ],
      "stateMutability": "view",
      "type": "function",
      "constant": true
    },
    {
      "inputs": [
        {
          "internalType": "uint256",
          "name": "_medicineID",
          "type": "uint256"
        },
        {
          "internalType": "address",
          "name": "_receiver",
          "type": "address"
        },
        {
          "internalType": "string",
          "name": "_trackingId",
          "type": "string"
        }
      ],
      "name": "createShipment",
      "outputs": [],
      "stateMutability": "nonpayable",
      "type": "function"
    },
    {
      "inputs": [
        {
          "internalType": "string",
          "name": "_trackingId",
          "type": "string"
        },
        {
          "internalType": "enum SupplyChain.ShipmentStatus",
          "name": "_status",
          "type": "uint8"
        }
      ],
      "name": "updateShipmentStatus",
      "outputs": [],
      "stateMutability": "nonpayable",
      "type": "function"
    },
    {
      "inputs": [],
      "name": "getTransactions",
      "outputs": [
        {
          "components": [
            {
              "internalType": "uint256",
              "name": "medicineId",
              "type": "uint256"
            },
            {
              "internalType": "address",
              "name": "participant",
              "type": "address"
            },
            {
              "internalType": "string",
              "name": "action",
              "type": "string"
            },
            {
              "internalType": "uint256",
              "name": "timestamp",
              "type": "uint256"
            }
          ],
          "internalType": "struct SupplyChain.Transaction[]",
          "name": "",
          "type": "tuple[]"
        }
      ],
      "stateMutability": "view",
      "type": "function",
      "constant": true
    }
  ],
  "bytecode": "0x608060405234801561001057600080fd5b50600080546001600160a01b03191633179055612366806100326000396000f3fe608060405234801561001057600080fd5b50600436106101585760003560e01c80639ace38c2116100c3578063c85e766d1161007c578063c85e766d14610319578063cc64278414610340578063ce90ceff14610353578063e7d5c46a14610366578063eddea14414610379578063f2fde38b1461038c57600080fd5b80639ace38c214610293578063a288bb9e146102b6578063ac859a4b146102c9578063b02385ea146102e0578063b5fabfda146102f3578063b8ee738c1461030657600080fd5b806383920e901161011557806383920e9014610207578063857ddb041461021c5780638da5cb5b1461022f5780638f0013231461025a5780638f4183cc1461026d5780639a268f351461028057600080fd5b806316dc15fe1461015d5780632a4af440146101885780635ceaef5b1461019d5780635cf723a3146101c15780636a992c9f146101e15780636b5eb09c146101f4575b600080fd5b61017061016b366004611bbd565b61039f565b60405161017f93929190611c2f565b60405180910390f35b61019b610196366004611d12565b6104dc565b005b6101b06101ab366004611d86565b6105d7565b60405161017f959493929190611ded565b6101d46101cf366004611e2e565b6106aa565b60405161017f9190611e47565b61019b6101ef366004611d12565b61093f565b610170610202366004611bbd565b610a25565b61020f610a51565b60405161017f9190611e5a565b61019b61022a366004611d12565b610b6c565b600054610242906001600160a01b031681565b6040516001600160a01b03909116815260200161017f565b61019b610268366004611e2e565b610c4e565b61019b61027b366004611ef1565b610d78565b61017061028e366004611bbd565b610f12565b6102a66102a1366004611e2e565b610f3e565b60405161017f9493929190611f55565b61019b6102c4366004611e2e565b61100d565b6102d260085481565b60405190815260200161017f565b61019b6102ee366004611e2e565b611158565b61019b610301366004611d12565b61129c565b61019b610314366004611e2e565b61137e565b61032c610327366004611e2e565b6114c1565b60405161017f989796959493929190611fa0565b61017061034e366004611bbd565b611628565b61019b610361366004612013565b611654565b61019b610374366004612060565b6117c4565b61019b610387366004611e2e565b6118bc565b61019b61039a366004611bbd565b6119f9565b600260205260009081526040902080546001820180546001600160a01b0390921692916103cb906120b6565b80601f01602080910402602001604051908101604052809291908181526020018280546103f7906120b6565b80156104445780601f1061041957610100808354040283529160200191610444565b820191906000526020600020905b81548152906001019060200180831161042757829003601f168201915b505050505090806002018054610459906120b6565b80601f0160208091040260200160405190810160405280929190818152602001828054610485906120b6565b80156104d25780601f106104a7576101008083540402835291602001916104d2565b820191906000526020600020905b8154815290600101906020018083116104b557829003601f168201915b5050505050905083565b6000546001600160a01b0316331461050f5760405162461bcd60e51b8152600401610506906120f0565b60405180910390fd5b604080516060810182526001600160a01b03858116808352602080840187815284860187905260009283526004909152939020825181546001600160a01b03191692169190911781559151909190600182019061056c9082612166565b50604082015160028201906105819082612166565b50905050826001600160a01b03166000805160206122f18339815191526040516105ca906020808252600b908201526a2234b9ba3934b13aba37b960a91b604082015260600190565b60405180910390a2505050565b8051602081830181018051600682529282019190930120915280546001820154600283015460038401805493946001600160a01b0393841694939092169261061e906120b6565b80601f016020809104026020016040519081016040528092919081815260200182805461064a906120b6565b80156106975780601f1061066c57610100808354040283529160200191610697565b820191906000526020600020905b81548152906001019060200180831161067a57829003601f168201915b5050506004909301549192505060ff1685565b60606000821180156106be57506008548211155b6107005760405162461bcd60e51b8152602060048201526013602482015272125b9d985b1a59081b59591a58da5b99481251606a1b6044820152606401610506565b60008083815260016020526040902060060154600160a01b900460ff16600581111561072e5761072e611dc3565b0361075657505060408051808201909152600781526613dc99195c995960ca1b602082015290565b6001600083815260016020526040902060060154600160a01b900460ff16600581111561078557610785611dc3565b036107bb57505060408051808201909152601581527414985dc813585d195c9a585b0814dd5c1c1b1a5959605a1b602082015290565b6002600083815260016020526040902060060154600160a01b900460ff1660058111156107ea576107ea611dc3565b0361081757505060408051808201909152600c81526b13585b9d599858dd1d5c995960a21b602082015290565b6003600083815260016020526040902060060154600160a01b900460ff16600581111561084657610846611dc3565b0361087257505060408051808201909152600b81526a111a5cdd1c9a589d5d195960aa1b602082015290565b6004600083815260016020526040902060060154600160a01b900460ff1660058111156108a1576108a1611dc3565b036108c857505060408051808201909152600681526514995d185a5b60d21b602082015290565b6005600083815260016020526040902060060154600160a01b900460ff1660058111156108f7576108f7611dc3565b0361091c57505060408051808201909152600481526314dbdb1960e21b602082015290565b50506040805180820190915260078152662ab735b737bbb760c91b602082015290565b6000546001600160a01b031633146109695760405162461bcd60e51b8152600401610506906120f0565b604080516060810182526001600160a01b03858116808352602080840187815284860187905260009283526003909152939020825181546001600160a01b0319169216919091178155915190919060018201906109c69082612166565b50604082015160028201906109db9082612166565b50905050826001600160a01b03166000805160206122f18339815191526040516105ca906020808252600c908201526b26b0b73ab330b1ba3ab932b960a11b604082015260600190565b600360205260009081526040902080546001820180546001600160a01b0390921692916103cb906120b6565b60606007805480602002602001604051908101604052809291908181526020016000905b82821015610b6357600084815260209081902060408051608081018252600486029092018054835260018101546001600160a01b03169383019390935260028301805492939291840191610ac8906120b6565b80601f0160208091040260200160405190810160405280929190818152602001828054610af4906120b6565b8015610b415780601f10610b1657610100808354040283529160200191610b41565b820191906000526020600020905b815481529060010190602001808311610b2457829003601f168201915b5050505050815260200160038201548152505081526020019060010190610a75565b50505050905090565b6000546001600160a01b03163314610b965760405162461bcd60e51b8152600401610506906120f0565b604080516060810182526001600160a01b03858116808352602080840187815284860187905260009283526005909152939020825181546001600160a01b031916921691909117815591519091906001820190610bf39082612166565b5060408201516002820190610c089082612166565b50905050826001600160a01b03166000805160206122f18339815191526040516105ca906020808252600890820152672932ba30b4b632b960c11b604082015260600190565b6000818152600160205260409020600601546001600160a01b03163314610cb75760405162461bcd60e51b815260206004820152601960248201527f4e6f74207468652061737369676e65642072657461696c6572000000000000006044820152606401610506565b6004600082815260016020526040902060060154600160a01b900460ff166005811115610ce657610ce6611dc3565b14610d035760405162461bcd60e51b815260040161050690612226565b60008181526001602052604090819020600601805460ff60a01b1916600560a01b17905551819060008051602061231183398151915290610d469060059061224d565b60405180910390a2610d75816040518060400160405280600481526020016314dbdb1960e21b81525033611a8d565b50565b6000546001600160a01b03163314610da25760405162461bcd60e51b8152600401610506906120f0565b60088054906000610db283612261565b909155505060408051610100810182526008548152602081018490529081018290526000606082018190526080820181905260a0820181905260c0820181905260e08201526008546000908152600160208181526040909220835181559183015190820190610e219082612166565b5060408201516002820190610e369082612166565b5060608201516003820180546001600160a01b03199081166001600160a01b03938416179091556080840151600484018054831691841691909117905560a08401516005808501805484169285169290921790915560c085015160068501805493841691909416908117845560e086015193926001600160a81b0319161790600160a01b908490811115610ecc57610ecc611dc3565b02179055509050506008547f391a5327e58df0236e727eae6e91d54d5aae7a950c4e6616893611e349f6c64e83604051610f069190611e47565b60405180910390a25050565b600560205260009081526040902080546001820180546001600160a01b0390921692916103cb906120b6565b60078181548110610f4e57600080fd5b60009182526020909120600490910201805460018201546002830180549294506001600160a01b039091169291610f84906120b6565b80601f0160208091040260200160405190810160405280929190818152602001828054610fb0906120b6565b8015610ffd5780601f10610fd257610100808354040283529160200191610ffd565b820191906000526020600020905b815481529060010190602001808311610fe057829003601f168201915b5050505050908060030154905084565b336000908152600260205260409020546001600160a01b03166110725760405162461bcd60e51b815260206004820152601960248201527f4e6f742061207265676973746572656420737570706c696572000000000000006044820152606401610506565b60008082815260016020526040902060060154600160a01b900460ff1660058111156110a0576110a0611dc3565b146110bd5760405162461bcd60e51b815260040161050690612226565b60008181526001602081905260409091206003810180546001600160a01b03191633179055600601805460ff60a01b1916600160a01b830217905550806000805160206123118339815191526001604051611118919061224d565b60405180910390a2610d75816040518060400160405280601581526020017414985dc813585d195c9a585b0814dd5c1c1b1a5959605a1b81525033611a8d565b336000908152600360205260409020546001600160a01b03166111bd5760405162461bcd60e51b815260206004820152601d60248201527f4e6f7420612072656769737465726564206d616e7566616374757265720000006044820152606401610506565b6001600082815260016020526040902060060154600160a01b900460ff1660058111156111ec576111ec611dc3565b146112095760405162461bcd60e51b815260040161050690612226565b60008181526001602052604090206004810180546001600160a01b0319163317905560060180546002919060ff60a01b1916600160a01b830217905550806000805160206123118339815191526002604051611265919061224d565b60405180910390a2610d75816040518060400160405280600c81526020016b13585b9d599858dd1d5c995960a21b81525033611a8d565b6000546001600160a01b031633146112c65760405162461bcd60e51b8152600401610506906120f0565b604080516060810182526001600160a01b03858116808352602080840187815284860187905260009283526002909152939020825181546001600160a01b0319169216919091178155915190919060018201906113239082612166565b50604082015160028201906113389082612166565b50905050826001600160a01b03166000805160206122f18339815191526040516105ca9060208082526008908201526729bab8383634b2b960c11b604082015260600190565b336000908152600460205260409020546001600160a01b03166113e35760405162461bcd60e51b815260206004820152601c60248201527f4e6f7420612072656769737465726564206469737472696275746f72000000006044820152606401610506565b6002600082815260016020526040902060060154600160a01b900460ff16600581111561141257611412611dc3565b1461142f5760405162461bcd60e51b815260040161050690612226565b60008181526001602052604090206005810180546001600160a01b0319163317905560060180546003919060ff60a01b1916600160a01b83021790555080600080516020612311833981519152600360405161148b919061224d565b60405180910390a2610d75816040518060400160405280600b81526020016a111a5cdd1c9a589d5d195960aa1b81525033611a8d565b6001602081905260009182526040909120805491810180546114e2906120b6565b80601f016020809104026020016040519081016040528092919081815260200182805461150e906120b6565b801561155b5780601f106115305761010080835404028352916020019161155b565b820191906000526020600020905b81548152906001019060200180831161153e57829003601f168201915b505050505090806002018054611570906120b6565b80601f016020809104026020016040519081016040528092919081815260200182805461159c906120b6565b80156115e95780601f106115be576101008083540402835291602001916115e9565b820191906000526020600020905b8154815290600101906020018083116115cc57829003601f168201915b5050505060038301546004840154600585015460069095015493946001600160a01b03928316949183169350821691811690600160a01b900460ff1688565b600460205260009081526040902080546001820180546001600160a01b0390921692916103cb906120b6565b6000838152600160205260409020600501546001600160a01b031633146116c95760405162461bcd60e51b8152602060048201526024808201527f4f6e6c79206469737472696275746f722063616e2063726561746520736869706044820152631b595b9d60e21b6064820152608401610506565b6040805160a0810182528481523360208201526001600160a01b0384168183015260608101839052600060808201529051600690611708908490612288565b908152604080516020928190038301902083518155918301516001830180546001600160a01b03199081166001600160a01b0393841617909155918401516002840180549093169116179055606082015160038201906117689082612166565b50608082015160048201805460ff1916600183600281111561178c5761178c611dc3565b0217905550905050827f492580d8002217ac680e66d4bdd4e8c7ff35808636c281021617b4ca69082051826040516105ca9190611e47565b60006001600160a01b03166006836040516117df9190612288565b908152604051908190036020019020600101546001600160a01b03160361183d5760405162461bcd60e51b815260206004820152601260248201527114da1a5c1b595b9d081b9bdd08199bdd5b9960721b6044820152606401610506565b8060068360405161184e9190612288565b908152604051908190036020019020600401805460ff1916600183600281111561187a5761187a611dc3565b02179055507fae57594f667ede24d3c11b1074a763a20137755617ed4ddbcc470c13d6a0e08d82826040516118b09291906122a4565b60405180910390a15050565b336000908152600560205260409020546001600160a01b03166119215760405162461bcd60e51b815260206004820152601960248201527f4e6f74206120726567697374657265642072657461696c6572000000000000006044820152606401610506565b6003600082815260016020526040902060060154600160a01b900460ff16600581111561195057611950611dc3565b1461196d5760405162461bcd60e51b815260040161050690612226565b6000818152600160205260409081902060060180546001600160a81b0319163360ff60a01b191617600160a21b179055518190600080516020612311833981519152906119bc9060049061224d565b60405180910390a2610d758160405180604001604052806012815260200171417661696c61626c6520666f722053616c6560701b81525033611a8d565b6000546001600160a01b03163314611a235760405162461bcd60e51b8152600401610506906120f0565b6001600160a01b038116611a6b5760405162461bcd60e51b815260206004820152600f60248201526e496e76616c6964206164647265737360881b6044820152606401610506565b600080546001600160a01b0319166001600160a01b0392909216919091179055565b604080516080810182528481526001600160a01b03838116602083019081529282018581524260608401526007805460018101825560009190915283517fa66cc928b5edb82af9bd49922954155ab7b0942694bea4ce44661d9a8736c688600490920291820190815594517fa66cc928b5edb82af9bd49922954155ab7b0942694bea4ce44661d9a8736c689820180546001600160a01b0319169190941617909255519192917fa66cc928b5edb82af9bd49922954155ab7b0942694bea4ce44661d9a8736c68a90910190611b629082612166565b50606082015181600301555050827f0a64252f3b82f7e56a5062061bc724525ad4b4aeeb69f1dc73857fbb8d816bd883836040516105ca9291906122c6565b80356001600160a01b0381168114611bb857600080fd5b919050565b600060208284031215611bcf57600080fd5b611bd882611ba1565b9392505050565b60005b83811015611bfa578181015183820152602001611be2565b50506000910152565b60008151808452611c1b816020860160208601611bdf565b601f01601f19169290920160200192915050565b6001600160a01b0384168152606060208201819052600090611c5390830185611c03565b8281036040840152611c658185611c03565b9695505050505050565b634e487b7160e01b600052604160045260246000fd5b600082601f830112611c9657600080fd5b813567ffffffffffffffff80821115611cb157611cb1611c6f565b604051601f8301601f19908116603f01168101908282118183101715611cd957611cd9611c6f565b81604052838152866020858801011115611cf257600080fd5b836020870160208301376000602085830101528094505050505092915050565b600080600060608486031215611d2757600080fd5b611d3084611ba1565b9250602084013567ffffffffffffffff80821115611d4d57600080fd5b611d5987838801611c85565b93506040860135915080821115611d6f57600080fd5b50611d7c86828701611c85565b9150509250925092565b600060208284031215611d9857600080fd5b813567ffffffffffffffff811115611daf57600080fd5b611dbb84828501611c85565b949350505050565b634e487b7160e01b600052602160045260246000fd5b60038110611de957611de9611dc3565b9052565b8581526001600160a01b0385811660208301528416604082015260a060608201819052600090611e1f90830185611c03565b9050611c656080830184611dd9565b600060208284031215611e4057600080fd5b5035919050565b602081526000611bd86020830184611c03565b60006020808301818452808551808352604092508286019150828160051b87010184880160005b83811015611ee357888303603f19018552815180518452878101516001600160a01b03168885015286810151608088860181905290611ec282870182611c03565b60609384015196909301959095525094870194925090860190600101611e81565b509098975050505050505050565b60008060408385031215611f0457600080fd5b823567ffffffffffffffff80821115611f1c57600080fd5b611f2886838701611c85565b93506020850135915080821115611f3e57600080fd5b50611f4b85828601611c85565b9150509250929050565b8481526001600160a01b0384166020820152608060408201819052600090611f7f90830185611c03565b905082606083015295945050505050565b60068110611de957611de9611dc3565b60006101008a8352806020840152611fba8184018b611c03565b90508281036040840152611fce818a611c03565b6001600160a01b038981166060860152888116608086015287811660a0860152861660c08501529150612006905060e0830184611f90565b9998505050505050505050565b60008060006060848603121561202857600080fd5b8335925061203860208501611ba1565b9150604084013567ffffffffffffffff81111561205457600080fd5b611d7c86828701611c85565b6000806040838503121561207357600080fd5b823567ffffffffffffffff81111561208a57600080fd5b61209685828601611c85565b9250506020830135600381106120ab57600080fd5b809150509250929050565b600181811c908216806120ca57607f821691505b6020821081036120ea57634e487b7160e01b600052602260045260246000fd5b50919050565b6020808252600d908201526c2737ba103a34329037bbb732b960991b604082015260600190565b601f82111561216157600081815260208120601f850160051c8101602086101561213e5750805b601f850160051c820191505b8181101561215d5782815560010161214a565b5050505b505050565b815167ffffffffffffffff81111561218057612180611c6f565b6121948161218e84546120b6565b84612117565b602080601f8311600181146121c957600084156121b15750858301515b600019600386901b1c1916600185901b17855561215d565b600085815260208120601f198616915b828110156121f8578886015182559484019460019091019084016121d9565b50858210156122165787850151600019600388901b60f8161c191681555b5050505050600190811b01905550565b6020808252600d908201526c496e76616c696420737461676560981b604082015260600190565b6020810161225b8284611f90565b92915050565b60006001820161228157634e487b7160e01b600052601160045260246000fd5b5060010190565b6000825161229a818460208701611bdf565b9190910192915050565b6040815260006122b76040830185611c03565b9050611bd86020830184611dd9565b6040815260006122d96040830185611c03565b905060018060a01b0383166020830152939250505056fe54d9fcf3da31043daf69e0a8ad35eaf7cfae552733f792dc3d95805eb45bfec201689b180f81c4e9d8925da92a012114998acc4fdf0267f01c37d5cecf707651a264697066735822122027281b38a39ab4e1c1b542791d7ddf23cc84ae80e3d7d25f923ee1b323cc5eec64736f6c63430008140033",
  "immutableReferences": {},
  "source": "// SPDX-License-Identifier: MIT\r\npragma solidity ^0.8.20;\r\n\r\ncontract SupplyChain {\r\n    address public owner;  // Contract owner\r\n\r\n    constructor() {\r\n        owner = msg.sender;  // Set deployer as owner\r\n    }\r\n\r\n    // Modifier to allow only the owner to execute certain functions\r\n    modifier onlyOwner() {\r\n        require(msg.sender == owner, \"Not the owner\");\r\n        _;\r\n    }\r\n\r\n    // Transfer ownership to another address (if needed)\r\n    function transferOwnership(address newOwner) public onlyOwner {\r\n        require(newOwner != address(0), \"Invalid address\");\r\n        owner = newOwner;\r\n    }\r\n\r\n    // Enum to represent different supply chain stages\r\n    enum Stage {\r\n        Ordered,\r\n        RawMaterialSupplied,\r\n        Manufactured,\r\n        Distributed,\r\n        Retail,\r\n        Sold\r\n    }\r\n\r\n    // Enum to represent shipment status\r\n    enum ShipmentStatus {\r\n        Pending,\r\n        InTransit,\r\n        Delivered\r\n    }\r\n\r\n    // Structure to store details of a medicine\r\n    struct Medicine {\r\n        uint256 id;\r\n        string name;\r\n        string description;\r\n        address supplier;\r\n        address manufacturer;\r\n        address distributor;\r\n        address retailer;\r\n        Stage stage;\r\n    }\r\n\r\n    // Structure for supply chain participants\r\n    struct Participant {\r\n        address addr;\r\n        string name;\r\n        string location;\r\n    }\r\n\r\n    // Structure for shipment tracking\r\n    struct Shipment {\r\n        uint256 medicineId;\r\n        address sender;\r\n        address receiver;\r\n        string trackingId;\r\n        ShipmentStatus status;\r\n    }\r\n\r\n    // Structure for transaction tracking\r\n    struct Transaction {\r\n        uint256 medicineId;\r\n        address participant;\r\n        string action;\r\n        uint256 timestamp;\r\n    }\r\n\r\n    // Mappings to store data\r\n    mapping(uint256 => Medicine) public medicines;\r\n    mapping(address => Participant) public suppliers;\r\n    mapping(address => Participant) public manufacturers;\r\n    mapping(address => Participant) public distributors;\r\n    mapping(address => Participant) public retailers;\r\n    mapping(string => Shipment) public shipments;\r\n    Transaction[] public transactions;\r\n\r\n    // Counters to assign unique IDs\r\n    uint256 public medicineCounter;\r\n\r\n    // Events\r\n    event MedicineAdded(uint256 indexed medicineId, string name);\r\n    event ParticipantAdded(address indexed participant, string role);\r\n    event MedicineStageUpdated(uint256 indexed medicineId, Stage newStage);\r\n    event ShipmentCreated(uint256 indexed medicineId, string trackingId);\r\n    event ShipmentUpdated(string trackingId, ShipmentStatus status);\r\n    event TransactionRecorded(uint256 indexed medicineId, string action, address participant);\r\n\r\n    // Add new medicine (only owner)\r\n    function addMedicine(string memory _name, string memory _description) public onlyOwner {\r\n        medicineCounter++;\r\n        medicines[medicineCounter] = Medicine(\r\n            medicineCounter,\r\n            _name,\r\n            _description,\r\n            address(0),  // No supplier assigned yet\r\n            address(0),  // No manufacturer assigned yet\r\n            address(0),  // No distributor assigned yet\r\n            address(0),  // No retailer assigned yet\r\n            Stage.Ordered\r\n        );\r\n\r\n        emit MedicineAdded(medicineCounter, _name);\r\n    }\r\n\r\n    // Register supply chain participants (only owner)\r\n    function addSupplier(address _addr, string memory _name, string memory _location) public onlyOwner {\r\n        suppliers[_addr] = Participant(_addr, _name, _location);\r\n        emit ParticipantAdded(_addr, \"Supplier\");\r\n    }\r\n\r\n    function addManufacturer(address _addr, string memory _name, string memory _location) public onlyOwner {\r\n        manufacturers[_addr] = Participant(_addr, _name, _location);\r\n        emit ParticipantAdded(_addr, \"Manufacturer\");\r\n    }\r\n\r\n    function addDistributor(address _addr, string memory _name, string memory _location) public onlyOwner {\r\n        distributors[_addr] = Participant(_addr, _name, _location);\r\n        emit ParticipantAdded(_addr, \"Distributor\");\r\n    }\r\n\r\n    function addRetailer(address _addr, string memory _name, string memory _location) public onlyOwner {\r\n        retailers[_addr] = Participant(_addr, _name, _location);\r\n        emit ParticipantAdded(_addr, \"Retailer\");\r\n    }\r\n\r\n    // Supply raw materials (Only Supplier)\r\n    function supplyRawMaterials(uint256 _medicineID) public {\r\n        require(suppliers[msg.sender].addr != address(0), \"Not a registered supplier\");\r\n        require(medicines[_medicineID].stage == Stage.Ordered, \"Invalid stage\");\r\n        medicines[_medicineID].supplier = msg.sender;\r\n        medicines[_medicineID].stage = Stage.RawMaterialSupplied;\r\n\r\n        emit MedicineStageUpdated(_medicineID, Stage.RawMaterialSupplied);\r\n        recordTransaction(_medicineID, \"Raw Material Supplied\", msg.sender);\r\n    }\r\n\r\n    // Manufacture medicine (Only Manufacturer)\r\n    function manufactureMedicine(uint256 _medicineID) public {\r\n        require(manufacturers[msg.sender].addr != address(0), \"Not a registered manufacturer\");\r\n        require(medicines[_medicineID].stage == Stage.RawMaterialSupplied, \"Invalid stage\");\r\n        medicines[_medicineID].manufacturer = msg.sender;\r\n        medicines[_medicineID].stage = Stage.Manufactured;\r\n\r\n        emit MedicineStageUpdated(_medicineID, Stage.Manufactured);\r\n        recordTransaction(_medicineID, \"Manufactured\", msg.sender);\r\n    }\r\n\r\n    // Distribute medicine (Only Distributor)\r\n    function distributeMedicine(uint256 _medicineID) public {\r\n        require(distributors[msg.sender].addr != address(0), \"Not a registered distributor\");\r\n        require(medicines[_medicineID].stage == Stage.Manufactured, \"Invalid stage\");\r\n        medicines[_medicineID].distributor = msg.sender;\r\n        medicines[_medicineID].stage = Stage.Distributed;\r\n\r\n        emit MedicineStageUpdated(_medicineID, Stage.Distributed);\r\n        recordTransaction(_medicineID, \"Distributed\", msg.sender);\r\n    }\r\n\r\n    // Retail medicine (Only Retailer)\r\n    function retailMedicine(uint256 _medicineID) public {\r\n        require(retailers[msg.sender].addr != address(0), \"Not a registered retailer\");\r\n        require(medicines[_medicineID].stage == Stage.Distributed, \"Invalid stage\");\r\n        medicines[_medicineID].retailer = msg.sender;\r\n        medicines[_medicineID].stage = Stage.Retail;\r\n\r\n        emit MedicineStageUpdated(_medicineID, Stage.Retail);\r\n        recordTransaction(_medicineID, \"Available for Sale\", msg.sender);\r\n    }\r\n\r\n    // Mark medicine as sold (Only assigned retailer)\r\n    function sellMedicine(uint256 _medicineID) public {\r\n        require(medicines[_medicineID].retailer == msg.sender, \"Not the assigned retailer\");\r\n        require(medicines[_medicineID].stage == Stage.Retail, \"Invalid stage\");\r\n        medicines[_medicineID].stage = Stage.Sold;\r\n\r\n        emit MedicineStageUpdated(_medicineID, Stage.Sold);\r\n        recordTransaction(_medicineID, \"Sold\", msg.sender);\r\n    }\r\n\r\n    // Get current stage of medicine\r\n    function getMedicineStage(uint256 _medicineID) public view returns (string memory) {\r\n        require(_medicineID > 0 && _medicineID <= medicineCounter, \"Invalid medicine ID\");\r\n\r\n        if (medicines[_medicineID].stage == Stage.Ordered) return \"Ordered\";\r\n        if (medicines[_medicineID].stage == Stage.RawMaterialSupplied) return \"Raw Material Supplied\";\r\n        if (medicines[_medicineID].stage == Stage.Manufactured) return \"Manufactured\";\r\n        if (medicines[_medicineID].stage == Stage.Distributed) return \"Distributed\";\r\n        if (medicines[_medicineID].stage == Stage.Retail) return \"Retail\";\r\n        if (medicines[_medicineID].stage == Stage.Sold) return \"Sold\";\r\n\r\n        return \"Unknown\";\r\n    }\r\n\r\n    // Create a shipment\r\n    function createShipment(uint256 _medicineID, address _receiver, string memory _trackingId) public {\r\n        require(medicines[_medicineID].distributor == msg.sender, \"Only distributor can create shipment\");\r\n        shipments[_trackingId] = Shipment(_medicineID, msg.sender, _receiver, _trackingId, ShipmentStatus.Pending);\r\n\r\n        emit ShipmentCreated(_medicineID, _trackingId);\r\n    }\r\n\r\n    // Update shipment status\r\n    function updateShipmentStatus(string memory _trackingId, ShipmentStatus _status) public {\r\n        require(shipments[_trackingId].sender != address(0), \"Shipment not found\");\r\n        shipments[_trackingId].status = _status;\r\n\r\n        emit ShipmentUpdated(_trackingId, _status);\r\n    }\r\n\r\n    // Get transaction history\r\n    function getTransactions() public view returns (Transaction[] memory) {\r\n        return transactions;\r\n    }\r\n\r\n    // Record transaction\r\n    function recordTransaction(uint256 _medicineID, string memory _action, address _participant) internal {\r\n        transactions.push(Transaction(_medicineID, _participant, _action, block.timestamp));\r\n        emit TransactionRecorded(_medicineID, _action, _participant);\r\n    }\r\n}",
  "sourcePath": "C:\\Users\\Harshvardhan Sharma\\OneDrive\\Desktop\\Projects\\Supply-Chain-Management-using-Blockchain-Technology\\contracts\\Supplychain.sol",
  "compiler": {
    "name": "solc",
    "version": "0.8.20+commit.a1b79de6.Emscripten.clang"
  },
  "schemaVersion": "3.4.16",
  "updatedAt": "2025-02-18T06:34:42.616Z",
  "networkType": "ethereum",
  "devdoc": {
    "kind": "dev",
    "methods": {},
    "version": 1
  },
  "userdoc": {
    "kind": "user",
    "methods": {},
    "version": 1
  }
}